:020000040000FA
:040000008031C6285D
:100008007E1480314E01161E35287E01BF1F35280B
:10001800BF1305304001D5000F30D400F130890BF3
:100028001328D40B1328D50B132840018C1B352813
:1000380003101A1D0314031C242840011A1526282E
:1000480040011A1103109A1E0314031C2E284001A4
:100058009A16302840019A121A1D34289A17352802
:100068009A134E01961A8C1E5C288C1240015D086A
:10007800031D51285C08031D51285B08031D5128E6
:1000880099305A02031851280130DA070030DB3D55
:100098000030DC3D0030DD3D5C284E01961200301A
:1000A8004001DD000030DC000030DB000030DA0009
:1000B8004E0117180D1CC4280D1042012408F00029
:1000C8002508F100F201F30100308C318A248031D7
:1000D80073084001BD007208BC007108BB007008BD
:1000E800BA004430A3007F30A200C030A100003025
:1000F800A00041011B08F0001C08F100F201F30107
:1001080000308C318A24803173084001A7007208BE
:10011800A6007108A5007008A4008E3186268031DB
:1001280040012308C1002208C0002108BF002008A0
:10013800BE0083310423803140013D08D9003C08CA
:10014800D8003B08D7003A08D6005908F3005808E9
:10015800F2005708F1005608F0004030F700003070
:10016800F6000030F5000030F4008B3113238031A5
:100178000318C12840011A14C32840011A1014108A
:100188007E1009008031C8284001DA01DB01DC015A
:10019800DD01203084000130850019308731FA27CD
:1001A8007E1040018A316E2A41014B088039D00007
:1001B8005008D5004B35D0005008DB00CA1B5B1433
:1001C8005B080319F4285B0A031DF2280030CB00F2
:1001D8000030CA000030C9000030C800CA17FC2827
:1001E8000030CB000030CA000030C9000030C80021
:1001F8004F088039D0005008D5064F35D000500838
:10020800DA00CE1B5A145A08031917295A0A031D73
:1002180015290030CF000030CE000030CD0000306E
:10022800CC00CE171F290030CF000030CE000030A0
:10023800CD000030CC005A08031D5B08031D2D2992
:100248000030CB000030CA000030C9000030C800C0
:1002580008004808D0005008A0004E088931C7217E
:10026800803141012108E1002008E0006008D00049
:10027800D101D201D3015308D9005208D80051083E
:10028800D7005008D6006108D000D101D201D301AF
:100298005308DF005208DE005108DD005008DC007A
:1002A8004908D0005008A0004D088931C721803185
:1002B80041012108E1002008E0006008D000D101D8
:1002C800D201D3015008D6075108D73D5208D83D6E
:1002D8005308D93D6108D000D101D201D30150089B
:1002E800DC075108DD3D5208DE3D5308DF3D4A0872
:1002F800D0005008A0004C088931C7218031410145
:100308002108E1002008E0006008D000D101D201F6
:10031800D3015008D6075108D73D5208D83D530895
:10032800D93D6108D000D101D201D3015008DC07C2
:100338005108DD3D5208DE3D5308DF3D0830D63513
:10034800D70DD80DD90D890BA3294908D00050081D
:10035800A0004C088931C721803141012108E10002
:100368002008E0006008D6076108D73D0030D83D76
:10037800D93D4808D0005008A0004D088931C72150
:10038800803141012108E1002008E0006008D6071B
:100398006108D73D0030D83DD93D0830D635D70D56
:1003A800D80DD90D890BD2294808D0005008A000D3
:1003B8004C088931C721803141012108E10020081A
:1003C800E0006008D6076108D73D0030D83DD93D28
:1003D8004908D0005008A0004E088931C721803153
:1003E80041012108E1002008E0006008DC076108FD
:1003F800DD3D0030DE3DDF3D4A08D0005008A0005A
:100408004D088931C721803141012108E1002008C8
:10041800E0006008DC076108DD3D0030DE3DDF3DBF
:100428004A08D0005008A0004E088931C721803101
:1004380041012108E1002008E0006008D0006108BF
:10044800D100D201D3010830D035D10DD20DD30D52
:10045800890B282A5008DC075108DD3D5208DE3D8B
:100468005308DF3D5608D0005708D1005808D2007D
:100478005908D3001830D336D20CD10CD00C890BC4
:100488003F2A5008DC075108DD3D5208DE3D53087D
:10049800DF3D0830D635D70DD80DD90D890B4E2A3A
:1004A8005B085A07D000D101D10D5008823EE00008
:1004B800FF30513DE100DE1B762A0130DC35DD0DD1
:1004C800DE0DDF0D890B622AD91B5C140130D6358D
:1004D800D70DD80DD90D890B6B2AFF30E007FF30F7
:1004E800E13D5F2ADA01D91F8F2AFF305605D00077
:1004F800FF305705D100FF305805D2007F3059052D
:10050800D300530852045104500403195C188D2A6F
:100518008F2ADA01DA0A5A080319B82A0130DC07E7
:100528000030DD3D0030DE3D0030DF3D5F1CB82A85
:100538005C08D0005D08D1005E08D2005F08D300D7
:100548000130D400D337D20CD10CD00CD40BA62A4E
:100558005308DF005208DE005108DD005008DC00B7
:100568000130E0070030E13D6108803AD00080307A
:100578005002031DC12AFF306002031CCD2A7F30C0
:100588004101DF008030DE000030DD000030DC009B
:10059800F72A41016108803AD00080305002031DDB
:1005A800D72A013060020318E42A00304101DF0035
:1005B8000030DE000030DD000030DC00D501F72A15
:1005C80041016008D0005008DB00FF30DC05FF3037
:1005D800DD057F30DE050030DF055B18DE175B3692
:1005E800D0005008DF005508D0005008DF045F082D
:1005F800CB005E08CA005D08C9005C08C800080096
:1006080040013D088039C2004208C7003D35C2009C
:100618004208CD00BC1B4D144D080319202B4D0A70
:10062800031D1E2B0030BD000030BC000030BB0095
:100638000030BA00BC17282B0030BD000030BC00C9
:100648000030BB000030BA0041088039C2004208BF
:10065800C7064135C2004208CC00C01B4C144C08E8
:100668000319432B4C0A031D412B0030C1000030F5
:10067800C0000030BF000030BE00C0174B2B003058
:10068800C1000030C0000030BF000030BE004C0880
:10069800031D4D08031D592B0030BD000030BC0060
:1006A8000030BB000030BA0008003A08C200420817
:1006B800F00040088931A821833171084001D30036
:1006C8007008D2005208C200C301C401C501450820
:1006D800CB004408CA004308C9004208C8005308B0
:1006E800C200C301C401C5014508D1004408D000B7
:1006F8004308CF004208CE003B08C2004208F00081
:100708003F088931A821833171084001D30070085E
:10071800D2005208C200C301C401C5014208C8077B
:100728004308C93D4408CA3D4508CB3D5308C200AB
:10073800C301C401C5014208CE074308CF3D4408A0
:10074800D03D4508D13D3C08C2004208F0003E08B3
:100758008931A821833171084001D3007008D20083
:100768005208C200C301C401C5014208C8074308B2
:10077800C93D4408CA3D4508CB3D5308C200C301E2
:10078800C401C5014208CE074308CF3D4408D03D07
:100798004508D13D0830C835C90DCA0DCB0D890BA8
:1007A800CF2B3B08C2004208F0003E088931A8213F
:1007B800833171084001D3007008D2005208C8077D
:1007C8005308C93D0030CA3DCB3D3A08C200420833
:1007D800F0003F088931A821833171084001D30016
:1007E8007008D2005208C8075308C93D0030CA3DF6
:1007F800CB3D0830C835C90DCA0DCB0D890BFE2B72
:100808003A08C2004208F0003E088931A821833125
:1008180071084001D3007008D2005208C807530875
:10082800C93D0030CA3DCB3D3B08C2004208F0003C
:1008380040088931A821833171084001D30070082C
:10084800D2005208CE075308CF3D0030D03DD13DED
:100858003C08C2004208F0003F088931A8218331D2
:1008680071084001D3007008D2005208CE0753081F
:10087800CF3D0030D03DD13D3C08C2004208F000D9
:1008880040088931A821833171084001D3007008DC
:10089800D2005208C2005308C300C401C501083081
:1008A800C235C30DC40DC50D890B542C4208CE07A3
:1008B8004308CF3D4408D03D4508D13D4808C20013
:1008C8004908C3004A08C4004B08C5001830C5369B
:1008D800C40CC30CC20C890B6B2C4208CE0743080E
:1008E800CF3D4408D03D4508D13D0830C835C90D35
:1008F800CA0DCB0D890B7A2C4D084C07C200C301D9
:10090800C30D4208823ED200FF30433DD300D01BC6
:10091800A22C0130CE35CF0DD00DD10D890B8E2CE8
:10092800CB1B4E140130C835C90DCA0DCB0D890B30
:10093800972CFF30D207FF30D33D8B2CCC01CB1F37
:10094800BB2CFF304805C200FF304905C300FF300B
:100958004A05C4007F304B05C500450844044304DC
:10096800420403194E18B92CBB2CCC01CC0A4C08F4
:100978000319E42C0130CE070030CF3D0030D03DC4
:100988000030D13D511CE42C4E08C2004F08C30072
:100998005008C4005108C5000130C600C537C40C52
:1009A800C30CC20CC60BD22C4508D1004408D00099
:1009B8004308CF004208CE000130D2070030D33DB3
:1009C8005308803AC20080304202031DED2CFF30EC
:1009D8005202031CF92C7F304001D1008030D00036
:1009E8000030CF000030CE00232D40015308803A5C
:1009F800C20080304202031D032D01305202031849
:100A0800102D00304001D1000030D0000030CF0060
:100A18000030CE00C701232D40015208C200420811
:100A2800CD00FF30CE05FF30CF057F30D005003038
:100A3800D1054D18D0174D36C2004208D1004708DD
:100A4800C2004208D1045108BD005008BC004F083C
:100A5800BB004E08BA000800410135088039B600CD
:100A68003608BF003535B6003608C600B41B461434
:100A7800460803194D2D460A031D4A2D0030B500BE
:100A88000030B4000030B3000030B200B417B50134
:100A9800552D0030B5000030B4000030B3000030F0
:100AA800B20031088039B6003608BF063135B600C5
:100AB8003608C700B01B471447080319712D470AA9
:100AC800031D6E2D0030B1000030B0000030AF00C3
:100AD8000030AE00B017B101792D0030B100003000
:100AE800B0000030AF000030AE00310830042F04F1
:100AF8002E04031D982D0030B5000030B4000030DE
:100B0800B3000030B2008030B4047F30B5043F0831
:100B1800B6003608B5043508B1003408B00033080B
:100B2800AF003208AE0008004608031DA42D0030AF
:100B3800B1000030B0000030AF000030AE00080057
:100B48004608B600B7013708B90047083602B800AA
:100B5800031CB90338087F3EC0000030393DC1008E
:100B68003508BE003408BD003308BC003208BB009D
:100B78000030B5000030B4000030B3000030B200DF
:100B88000030C5000030C4000030C3000030C2008F
:100B9800C7011A3047020318092E47080319EB2D1D
:100BA8000130BB35BC0DBD0DBE0D890BD52D0130F7
:100BB800B235B30DB40DB50D890BDC2DC51B321440
:100BC8000130C235C30DC40DC50D890BE52D3108A3
:100BD8003E02031DF92D30083D02031DF92D2F0893
:100BE8003C02031DF92D2E083B02031C042E451759
:100BF8002E08BB022F08BC3B3008BD3B3108BE3B6A
:100C08000130B6003608C707CD2D3E083D043C0428
:100C18003B04031D4214B41B262E0130B235B30D1C
:100C2800B40DB50D890B122EC51B32140130C23517
:100C3800C30DC40DC50D890B1B2EFF30C007FF3037
:100C4800C13D0F2EC701C51F3F2EFF304205B6001C
:100C5800FF304305B700FF304405B8007F30450535
:100C6800B9003908380437043604031932183D2E00
:100C78003F2EC701C70A47080319682E0130B2077B
:100C88000030B33D0030B43D0030B53D351C682E12
:100C98003208B6003308B7003408B8003508B90080
:100CA8000130BA00B937B80CB70CB60CBA0B562ECF
:100CB8003908B5003808B4003708B3003608B20060
:100CC8000130C0070030C13D4108803AB60080308D
:100CD8003602031D712EFF304002031C802EFF30A8
:100CE8004101C0000030C1000030B5000030B40040
:100CF8000030B3000030B20041014108803AB6002C
:100D080080303602031D8A2E013040020318982EC7
:100D18004101C001C1010030B5000030B40000300D
:100D2800B3000030B200BF0141014008B6003608E8
:100D3800C600461CA12EB417A52E7F30B600360873
:100D4800B4054636B6003608B5008B2D0030420192
:100D5800C4000030C3000030C2000030C1004101AF
:100D68001D14FC309D04A0300032890BB82E4101BF
:100D78009D1441019D1CC52E1530890BC12E000004
:100D8800BD2E420128084101A00042012908410165
:100D9800A100A201A30100308D311F258631410138
:100DA8002308CB002208CA002108C9002008C8006F
:100DB8001B08A0001C08A100A201A30100308D316E
:100DC8001F25863141012308B1002208B0002108FF
:100DD800AF002008AE004430B5008030B4000030C9
:100DE800B3000030B2008531302586314101310829
:100DF800CF003008CE002F08CD002E08CC0080315F
:100E0800D820863141014B084201C00041014A08FF
:100E18004201BF00410149084201BE0041014808A2
:100E28004201BD0041016208E600E60DE60D1D081D
:100E38006606033966069D00A0300032890B212F13
:100E480041019D1441019D1C2E2F1530890B2A2F1D
:100E58000000262F420140084101CB0042013F0813
:100E68004101CA0042013E084101C90042013D0852
:100E78004101C8004430B1007F30B000C030AF003D
:100E88000030AE001B08A0001C08A100A201A301AD
:100E980000308D311F25863141012308B500220815
:100EA800B4002108B3002008B2008531302586310E
:100EB80041013108CF003008CE002F08CD002E08A0
:100EC800CC008031D820863141014B084201BC005A
:100ED80041014A084201BB00410149084201BA00E8
:100EE800410148084201B9003A304101CB00833042
:100EF800CA001230C9006F30C80042013C084101E5
:100F0800CF0042013B084101CE0042013A084101AD
:100F1800CD00420139084101CC008031D82041017F
:100F28004B084201C40041014A084201C300410183
:100F380049084201C200410148084201C100440871
:100F48004101E500420143084101E4004201420831
:100F58004101E300420141084101E200080002307A
:100F680042014706031D0800E22F40011A10141021
:100F780008000230A0000030A1008A312B228731FE
:100F88008D31B52508000330A0000030A1008A315A
:100F98002B2287318D31B52508000430A0000030A0
:100FA800A1008A312B2287318931E72108000530D9
:100FB800A0000030A1008A312B2208003808410126
:100FC800E800E9016908003A0319EB2FDB2F6808EC
:100FD800013A0319B92F033A0319BD2F013A03192E
:100FE800C72F073A0319D12FDB2F080064008001AF
:100FF8000131890BFB2F00340A34D73483343F3452
:08100800F63428345C343F3457
:1013260050011E174101210850019B004101200870
:1013360050019A001E141E189E291D084101A10085
:1013460050011C084101A0000800F800F401F50155
:101356007008F200F3017208F6007308F700781CB3
:10136600B8297608F4077708F53D0130F635F70D0C
:10137600890BB9290310F80C7808031DB2297508E2
:10138600F1007408F00008004101A800A401A501BD
:101396002008A200A3012208A6002308A700281CF3
:1013A600D8292608A4072708A53D0130A635A70D8C
:1013B600890BD9290310A80C2808031DD229250852
:1013C600A1002408A000080042014708031DFB29CC
:1013D60040011A190D18FB2902304101A00020080E
:1013E6004201C70004304101A00020084201B800B4
:1013F600023042014706031D080040011A1D08007D
:101406000D1C08004201C701B80108004001141470
:101416001A100B304101A1002630A0005D30890B67
:10142600122AA00B122AA10B122A00324001141014
:101436000B304101A1002630A0005D30890B212A26
:10144600A00B212AA10B212A003240011414080006
:101456004001141429304101A3009630A2007F30C8
:10146600890B332AA20B332AA30B332A40011A1401
:101476004101A401A5012508803AA2002108803A6D
:101486002202031D482A20082402031808004001EE
:1014960014100D304101A3002D30A200D730890B66
:1014A600522AA20B522AA30B522A003240011414CC
:1014B6000D304101A3002D30A200D730890B612ADF
:1014C600A20B612AA30B612A003201304101A40755
:1014D6000030A53D3E2A8A31BD228A314201C5012E
:1014E600C601A92A8A3109228A3140011A1D9A1396
:1014F60042014608803A4101EE0080306E02031D2B
:10150600872A013042014502031C902A8D31B525F8
:101516008A314201C501C601952A01304201C5073B
:101526000030C63D8931E7218A31A92A03304201BC
:1015360038060319A22A02303806031DA62A4001DE
:101546001A119A129A178731B3278A31420147082E
:101556004101EE00EF016F08003A0319B32AA92AE8
:101566006E08003A0319752A023A0319992AA92A1C
:101576008031C6284201C701C70A8B170B174001E5
:1015860012147E013814400192147E01B8144001F1
:1015960013147E014310400192177E01B8134E10BA
:1015A60040011A1014141A117E014E114001141133
:1015B6009A127E01CE12400194129A137E01CE1326
:1015C600400194134E0116167E01BE1703305201D8
:1015D6008C040C308C048C170C1FEF2A41011E085A
:1015E6008F3910389E00FC309E05FC309D049E17F6
:1015F6001D104E010D1017104B019E174E0196122D
:101606004B011E121F161F081F39A0389F001F0806
:10161600F03908389F008C310A244201C7010800BE
:1016260000307005F80000307105F9008030720551
:10163600FA007F307305FB007B087A04790478048E
:10164600031D2D2B0030F3000030F2000030F100B6
:101656000030F00000307405F80000307505F90020
:1016660080307605FA007F307705FB007B087A0428
:1016760079047804031D472B0030F7000030F6008C
:101686000030F5000030F400F31F612B0030F80045
:101696000030F9000030FA008030FB007008F802D4
:1016A6007108F93B7208FA3B7308FB3B7B08F300B1
:1016B6007A08F2007908F1007808F000F71F7B2B12
:1016C6000030F8000030F9000030FA008030FB00EE
:1016D6007408F8027508F93B7608FA3B7708FB3B75
:1016E6007B08F7007A08F6007908F5007808F40018
:1016F6008030F3068030F70677087302031D080072
:1017060076087202031D080075087102031D0800A1
:10171600740870020800003041012005A80000305E
:101726002105A90080302205AA007F302305AB00E1
:101736002B082A0429042804031DA92B0030A30022
:101746000030A2000030A1000030A00000302405C7
:10175600A80000302505A90080302605AA007F30A4
:101766002705AB002B082A0429042804031DC32BD4
:101776000030A7000030A6000030A5000030A4000D
:10178600A31FDD2B0030A8000030A9000030AA00FE
:101796008030AB002008A8022108A93B2208AA3BFA
:1017A6002308AB3B2B08A3002A08A2002908A100A6
:1017B6002808A000A71FF72B0030A8000030A900BA
:1017C6000030AA008030AB002408A8022508A93BF7
:1017D6002608AA3B2708AB3B2B08A7002A08A60029
:1017E6002908A5002808A4008030A3068030A70693
:1017F60027082302031D080026082202031D0800ED
:1018060025082102031D08002408200208001330C1
:101816004101A0008130A100893193218C31410121
:1018260021084201A100410120084201A000163012
:101836004101A0008130A100893193218C31410101
:1018460021084201A300410120084201A2001830EC
:101856004101A0008130A100893193218C314101E1
:1018660021084201A500410120084201A4001930C7
:101876004101A0008130A100893193218C314101C1
:1018860021084201A700410120084201A6001A30A2
:101896004101A0008130A100893193218C314101A1
:1018A60021084201A900410120084201A8001B307D
:1018B6004101A0008130A100893193218C31410181
:1018C60021084201AB00410120084201AA001C3058
:1018D6004101A0008130A100893193218C31410161
:1018E60021084201AD00410120084201AC001D3033
:1018F6004101A0008130A1008931932141012108D5
:101906004201AF00410120084201AE000800F80084
:101916007808031DF31F9F2C7009FA007109FB005C
:101926007209FC007309FD00FA0A0319FB0A031980
:10193600FC0A0319FD0AA72C7308FD007208FC00B7
:101946007108FB007008FA007308720471047004D1
:10195600031DB62C0030F3000030F2000030F10019
:101966000030F00008009630F4007408F900FE30EC
:101976007D050319DD2C0130F4007408F9070130E8
:10198600FD36FC0CFB0CFA0C890BC32CBA2C01306F
:10199600F4007408F9070130FA070030FB3D003007
:1019A600FC3D0030FD3D0130FD36FC0CFB0CFA0C15
:1019B600890BD72CFF307D050319EF2CCA2C02307A
:1019C6007902031CF12C0130F9020130FA35FB0DC6
:1019D600FC0DFD0D890BE92CFC1FE22C7918FB2C64
:1019E600FF30FA05FF30FB057F30FC05FF30FD05B3
:1019F6000310F90C7908F400F501F601F701183027
:101A0600F435F50DF60DF70D890B032D7408FA0460
:101A16007508FB047608FC047708FD047808031DA6
:101A2600F31F162DFD177D08F3007C08F2007B08D6
:101A3600F1007A08F00008004101A8002808031DFB
:101A4600A31F352D2009AA002109AB002209AC00ED
:101A56002309AD00AA0A0319AB0A0319AC0A031934
:101A6600AD0A3D2D2308AD002208AC002108AB00CD
:101A76002008AA002308220421042004031D4C2D5B
:101A86000030A3000030A2000030A1000030A0000A
:101A960008009630A4002408A900FE302D0503197D
:101AA600732D0130A4002408A9070130AD36AC0C13
:101AB600AB0CAA0C890B592D502D0130A40024081B
:101AC600A9070130AA070030AB3D0030AC3D00301D
:101AD600AD3D0130AD36AC0CAB0CAA0C890B6D2DAF
:101AE600FF302D050319852D602D02302902031CB8
:101AF600872D0130A9020130AA35AB0DAC0DAD0D15
:101B0600890B7F2DAC1F782D2918912DFF30AA0542
:101B1600FF30AB057F30AC05FF30AD050310A90CD7
:101B26002908A400A501A601A7011830A435A50D12
:101B3600A60DA70D890B992D2408AA042508AB0428
:101B46002608AC042708AD042808031DA31FAC2DE6
:101B5600AD172D08A3002C08A2002B08A1002A0807
:101B6600A000080000304101E200E3008631AA2609
:101B76008D31410165084201B70041016408420107
:101B8600B600410163084201B50041016208420105
:101B9600B40001304101E2000030E3008631AA269C
:101BA6008D31410165084201B300410164084201DB
:101BB600B200410163084201B100410162084201DD
:101BC600B0004708031D392E37084101A300420122
:101BD60036084101A200420135084101A100420137
:101BE60034084101A0003F30A7005C30A600283031
:101BF600A500F630A4008B318E238D3103180F2EED
:101C060002304101E70067084201C7000330410185
:101C1600E70067084201B800420133084101A3000A
:101C2600420132084101A200420131084101A100EE
:101C3600420130084101A0003F30A7005C30A600F9
:101C46002830A500F630A4008B318E238D31031881
:101C5600080002304101E70067084201C700023070
:101C66004101E70067084201B80008000230470654
:101C7600031D08003F304101A3008330A200D73086
:101C8600A1000A30A000420137084101A700420125
:101C960036084101A600420135084101A50042016E
:101CA60034084101A4008B318E238D310318602E38
:101CB6000330420138060319832E3F304101A30049
:101CC6008330A200D730A1000A30A00042013308B9
:101CD6004101A700420132084101A6004201310834
:101CE6004101A500420130084101A4008B318E2339
:101CF6008D3103180800023042013806031D080022
:101D0600C701B8010800400127088039A800280843
:101D1600B1002735A8002808B800A61B38143808D3
:101D26000319A32E380A031DA02E0030A700003089
:101D3600A6000030A5000030A400A617A701AB2E10
:101D46000030A7000030A6000030A5000030A40037
:101D560023088039A8002808B1062335A8002808DA
:101D6600B900A21B391439080319C72E390A031DF5
:101D7600C42E0030A3000030A2000030A1000030C5
:101D8600A000A217A301CF2E0030A3000030A200AE
:101D96000030A1000030A000230822042104200402
:101DA600031DEE2E0030A7000030A6000030A5006F
:101DB6000030A4008030A6047F30A7043108A800B4
:101DC6002808A7042708A3002608A2002508A100C2
:101DD6002408A00008003808031DFA2E0030A300CE
:101DE6000030A2000030A1000030A0000800380832
:101DF600A800A9012908AB0039082802AA00031C7B
:101E0600AB032A087F3EB20000302B3DB300270803
:101E1600B0002608AF002508AE002408AD0000304B
:101E2600A7000030A6000030A5000030A400003056
:101E3600B7000030B6000030B5000030B400B9017C
:101E46001A30390203185F2F39080319412F013060
:101E5600AD35AE0DAF0DB00D890B2B2F0130A4356E
:101E6600A50DA60DA70D890B322FB71B2414013023
:101E7600B435B50DB60DB70D890B3B2F23083002CF
:101E8600031D4F2F22082F02031D4F2F21082E025C
:101E9600031D4F2F20082D02031C5A2F3717200829
:101EA600AD022108AE3B2208AF3B2308B03B013010
:101EB600A8002808B907232F30082F042E042D0464
:101EC600031D3414A61B7C2F0130A435A50DA60DC9
:101ED600A70D890B682FB71B24140130B435B50D37
:101EE600B60DB70D890B712FFF30B207FF30B33D2A
:101EF600652FB901B71F952FFF303405A800FF30B5
:101F06003505A900FF303605AA007F303705AB003E
:101F16002B082A042904280403192418932F952F23
:101F2600B901B90A39080319BE2F0130A4070030D8
:101F3600A53D0030A63D0030A73D271CBE2F240836
:101F4600A8002508A9002608AA002708AB0001302A
:101F5600AC00AB37AA0CA90CA80CAC0BAC2F2B0809
:101F6600A7002A08A6002908A5002808A400013011
:101F7600B2070030B33D3308803AA800803028020B
:101F8600031DC72FFF303202031CD62FFF3040013E
:101F9600B2000030B3000030A7000030A6000030C9
:101FA600A5000030A40040013308803AA800803024
:101FB6002802031DE02F013032020318EE2F4001E4
:101FC600B201B3010030A7000030A6000030A50022
:101FD6000030A400B10140013208A8002808B8006A
:101FE600381CF72FA617FB2F7F30A8002808A60558
:0A1FF6003836A8002808A700E12EE5
:020000040001F9
:0A000E009C1F3F2F9F3FFF1FFF3F85
:00000001FF
