:020000040000FA
:0400000080317628AD
:100008007E1480314E01161E49287E01BF1F4928E3
:10001800BF137A08031D49280730F1001730F00094
:100028006A30890B1528F00B1528F10B15280032BA
:1000380040018C1B382803101A1D0314031C2728A1
:1000480040011A15292840011A1103109A1E031499
:10005800031C312840019A16332840019A121A1DB0
:1000680037289A1738289A13FD304B019D009C01B8
:100078004E018C1200304101BB000030BA00003044
:10008800B9000030B8004E0196164E01961A8C1E23
:1000980071288C127A08031D712841013B08470218
:1000A800031D60283A084602031D602839084502E6
:1000B800031D602838084402031C6B280130B80768
:1000C8000030B93D0030BA3D0030BB3D71284E01CB
:1000D800961240011A119A129A134E0117180D0818
:1000E8007E1009008031782841018E31B826803190
:1000F800C4008E31B9268031C5008E31BA268031D0
:10010800C6008E31BB268031C700FB01A0308400B9
:10011800003085001C308E31BC267E1040018F31A6
:10012800AF2F400143088039C8004808CD00433547
:10013800C8004808D300C21B531453080319B12838
:10014800530A031DAF280030C3000030C20000303E
:10015800C1000030C000C217B9280030C300003009
:10016800C2000030C1000030C00047088039C80014
:100178004808CD064735C8004808CE00C61B4E14AF
:100188004E080319D4284E0A031DD2280030C70090
:100198000030C6000030C5000030C400C617DC2897
:1001A8000030C7000030C6000030C5000030C40071
:1001B8004E08031D5308031DEA280030C300003011
:1001C800C2000030C1000030C00008004008C8006C
:1001D8004808F20046088F310D2780317308400126
:1001E800D9007208D8005808C800C901CA01CB0153
:1001F8004B08D2004A08D1004908D0004808CF006F
:100208005908C800C901CA01CB014B08D7004A08E0
:10021800D6004908D5004808D4004108C800480855
:10022800F20045088F310D27803173084001D9004D
:100238007208D8005808C800C901CA01CB0148088B
:10024800CF074908D03D4A08D13D4B08D23D59084F
:10025800C800C901CA01CB014808D4074908D53DDF
:100268004A08D63D4B08D73D4208C8004808F20066
:1002780044088F310D27803173084001D900720876
:10028800D8005808C800C901CA01CB014808CF07DF
:100298004908D03D4A08D13D4B08D23D5908C8000D
:1002A800C901CA01CB014808D4074908D53D4A0805
:1002B800D63D4B08D73D0830CF35D00DD10DD20DE6
:1002C800890B60294108C8004808F20044088F31AA
:1002D8000D27803173084001D9007208D8005808EA
:1002E800CF075908D03D0030D13DD23D4008C80065
:1002F8004808F20045088F310D2780317308400106
:10030800D9007208D8005808CF075908D03D0030E6
:10031800D13DD23D0830CF35D00DD10DD20D890B4E
:100328008F294008C8004808F20044088F310D277B
:10033800803173084001D9007208D8005808CF07E7
:100348005908D03D0030D13DD23D4108C800480889
:10035800F20046088F310D27803173084001D9001B
:100368007208D8005808D4075908D53D0030D63D42
:10037800D73D4208C8004808F20045088F310D27CC
:10038800803173084001D9007208D8005808D40792
:100398005908D53D0030D63DD73D4208C800480829
:1003A800F20046088F310D27803173084001D900CB
:1003B8007208D8005808C8005908C900CA01CB01FA
:1003C8000830C835C90DCA0DCB0D890BE529480879
:1003D800D4074908D53D4A08D63D4B08D73D4F08B4
:1003E800C8005008C9005108CA005208CB0018308C
:1003F800CB36CA0CC90CC80C890BFC294808D40791
:100408004908D53D4A08D63D4B08D73D0830CF3579
:10041800D00DD10DD20D890B0B2A53084E07C800F9
:10042800C901C90D4808823ED800FF30493DD900AE
:10043800D61B332A0130D435D50DD60DD70D890BEF
:100448001F2AD21B54140130CF35D00DD10DD20D37
:10045800890B282AFF30D807FF30D93D1C2ACE0146
:10046800D21F4C2AFF304F05C800FF305005C90085
:10047800FF305105CA007F305205CB004B084A04B3
:1004880049044804031954184A2A4C2ACE01CE0AB2
:100498004E080319752A0130D4070030D53D0030C5
:1004A800D63D0030D73D571C752A5408C80055085A
:1004B800C9005608CA005708CB000130CC00CB371A
:1004C800CA0CC90CC80CCC0B632A4B08D7004A08C5
:1004D800D6004908D5004808D4000130D8070030B4
:1004E800D93D5908803AC80080304802031D7E2A49
:1004F800FF305802031C8A2A7F304001D700803021
:10050800D6000030D5000030D400B42A4001590884
:10051800803AC80080304802031D942A01305802EE
:100528000318A12A00304001D7000030D60000305F
:10053800D5000030D400CD01B42A40015808C800C5
:100548004808D300FF30D405FF30D5057F30D605E5
:100558000030D7055318D6175336C8004808D700B7
:100568004D08C8004808D7045708C3005608C200F9
:100578005508C1005408C000080040012D08803902
:10058800AE002E08B7002D35AE002E08BE00AC1BFD
:100598003E143E080319DE2A3E0A031DDB2A0030FA
:1005A800AD000030AC000030AB000030AA00AC1742
:1005B800AD01E62A0030AD000030AC000030AB00E1
:1005C8000030AA0029088039AE002E08B706293560
:1005D800AE002E08BF00A81B3F143F080319022BCA
:1005E8003F0A031DFF2A0030A9000030A800003090
:1005F800A7000030A600A817A9010A2B0030A900FF
:100608000030A8000030A7000030A6002908280400
:1006180027042604031D292B0030AD000030AC0050
:100628000030AB000030AA008030AC047F30AD044D
:100638003708AE002E08AD042D08A9002C08A80024
:100648002B08A7002A08A60008003E08031D352B22
:100658000030A9000030A8000030A7000030A60034
:1006680008003E08AE00AF012F08B1003F082E0277
:10067800B000031CB10330087F3EB8000030313DA4
:10068800B9002D08B6002C08B5002B08B4002A08BC
:10069800B3000030AD000030AC000030AB000030DB
:1006A800AA000030BD000030BC000030BB000030A4
:1006B800BA00BF011A303F0203189A2B3F080319EA
:1006C8007C2B0130B335B40DB50DB60D890B662BF7
:1006D8000130AA35AB0DAC0DAD0D890B6D2BBD1BD3
:1006E8002A140130BA35BB0DBC0DBD0D890B762B14
:1006F80029083602031D8A2B28083502031D8A2B78
:1007080027083402031D8A2B26083302031C952B65
:100718003D172608B3022708B43B2808B53B29082B
:10072800B63B0130AE002E08BF075E2B36083504F5
:1007380034043304031D3A14AC1BB72B0130AA351B
:10074800AB0DAC0DAD0D890BA32BBD1B2A140130CD
:10075800BA35BB0DBC0DBD0D890BAC2BFF30B807EE
:10076800FF30B93DA02BBF01BD1FD02BFF303A058C
:10077800AE00FF303B05AF00FF303C05B0007F30D6
:100788003D05B100310830042F042E0403192A183E
:10079800CE2BD02BBF01BF0A3F080319F92B01301C
:1007A800AA070030AB3D0030AC3D0030AD3D2D1CFC
:1007B800F92B2A08AE002B08AF002C08B0002D0832
:1007C800B1000130B200B137B00CAF0CAE0CB20BB7
:1007D800E72B3108AD003008AC002F08AB002E081D
:1007E800AA000130B8070030B93D3908803AAE0098
:1007F80080302E02031D022CFF303802031C112CFE
:10080800FF304001B8000030B9000030AD000030C2
:10081800AC000030AB000030AA0040013908803A33
:10082800AE0080302E02031D1B2C01303802031845
:10083800292C4001B801B9010030AD000030AC00EE
:100848000030AB000030AA00B70140013808AE0004
:100858002E08BE003E1C322CAC17362C7F30AE0062
:100868002E08AC053E36AE002E08AD001C2B00301D
:100878004001EA000030E9000030E8000030E700FD
:1008880041011D14FC309D04A0300032890B492C15
:1008980041019D1441019D1C562C1530890B522C89
:1008A80000004E2C2808F2002908F300F401F50195
:1008B80000308531C225843175084001C3007408B1
:1008C800C2007308C1007208C00041011B08F20091
:1008D8001C08F300F401F50100308531C22584318C
:1008E80075084001A9007408A8007308A7007208D9
:1008F800A6004430AD008030AC000030AB000030C2
:10090800AA008231C122843140012908C700280881
:10091800C6002708C5002608C40080319520843108
:1009280040014308E6004208E5004108E4004008A9
:10093800E3005A08DE00DE0DDE0D41011D0840010E
:100948005E0603395E0641019D00A0300032890B26
:10095800AA2C41019D1441019D1CB72C1530890B0F
:10096800B32C0000AF2C40016608C3006508C20024
:100978006408C1006308C0004430A9007F30A800A3
:10098800C030A7000030A60041011B08F2001C0877
:10099800F300F401F50100308531C2258431750872
:1009A8004001AD007408AC007308AB007208AA00DF
:1009B8008231C122843140012908C7002808C600B5
:1009C8002708C5002608C4008031952084314001DD
:1009D8004308E2004208E1004108E0004008DF0067
:1009E8003A30C3008330C2001230C1006F30C000FB
:1009F8006208C7006108C6006008C5005F08C40037
:100A08008031952040014308EA004208E900410886
:100A1800E8004008E7006A08DD006908DC006808AB
:100A2800DB006708DA00080000304001DA00DB006C
:100A380084313B24853140015D084101B700400104
:100A48005C084101B60040015B084101B500400166
:100A58005A084101B40001304001DA000030DB00DF
:100A680084313B24853140015D084101B3004001D8
:100A78005C084101B20040015B084101B10040013E
:100A88005A084101B0007A08031D882D3708F5007F
:100A98003608F4003508F3003408F2003F30F90056
:100AA8005C30F8002830F700F630F6008631D92699
:100AB80085310318682D02304001EB006B08FA00FD
:100AC8000330EB006B08FB0041013308F5003208E6
:100AD800F4003108F3003008F2003F30F9005C30D0
:100AE800F8002830F700F630F6008631D92685312F
:100AF8000318080002304001EB006B08FA000230CE
:100B0800EB006B08FB00080002307A06031D0800A2
:100B18003F30F5008330F400D730F3000A30F2009C
:100B28003708F9003608F8003508F7003408F600E9
:100B38008631D92685310318A52D03307B06031984
:100B4800BF2D3F30F5008330F400D730F3000A3072
:100B5800F20041013308F9003208F8003108F700C3
:100B68003008F6008631D92685310318080002308E
:100B78007B06031D0800FA01FB0108004001A000E4
:100B88002008031DF51FD82D7209A2007309A300C0
:100B98007409A4007509A500A20A0319A30A031978
:100BA800A40A0319A50AE02D7508A5007408A40075
:100BB8007308A3007208A200750874047304720411
:100BC800031DEF2D0030F5000030F4000030F30075
:100BD8000030F20008009630F6007608A100FE30DA
:100BE80025050319162E0130F6007608A1070130F5
:100BF800A536A40CA30CA20C890BFC2DF32D0130F7
:100C0800F6007608A1070130A2070030A33D0030A6
:100C1800A43D0030A53D0130A536A40CA30CA20CC0
:100C2800890B102EFF3025050319282E032E0230BC
:100C38002102031C2A2E0130A1020130A235A30D86
:100C4800A40DA50D890B222EA41F1B2E2118342EAE
:100C5800FF30A205FF30A3057F30A405FF30A505AE
:100C68000310A10C2108F600F701F801F90118306A
:100C7800F635F70DF80DF90D890B3C2E7608A20410
:100C88007708A3047808A4047908A5042008031D9C
:100C9800F51F4F2EA5172508F5002408F400230892
:100CA800F3002208F2000800FA01FA0A8B170B1762
:100CB800400112147E013814400192147E01B814C8
:100CC800400112157E013815400113147E014310AE
:100CD800400192177E01B8134E1040011A101414E7
:100CE8001A117E014E11400114119A127E01CE1282
:100CF800400194129A137E01CE13400194131315E8
:100D08007E014311400193157E01C3114E01161651
:100D18007E01BE17033052018C040C308C048C17F2
:100D28000C1F942E41011E088F3910389E00FC308C
:100D38009E05FC309D049E171D104E010D101710C6
:100D480040010D19BB2E8D19B22E00304101C7008C
:100D58000030C6000130C500CC30C52E003041013E
:100D6800C7000030C6000130C5003330C52E8D19CC
:100D7800C62E00304101C7000030C6000130C50052
:100D88007F30C4004B019E174E0196124B011E1274
:100D98001F161F081F39A0389F001F08F039083890
:100DA8009F0087315527FA0108000030720540017D
:100DB800A00000307305A10080307405A2007F30C8
:100DC8007505A3002308220421042004031DF42E22
:100DD8000030F5000030F4000030F3000030F2007D
:100DE80000307605A00000307705A1008030780536
:100DF800A2007F307905A3002308220421042004DF
:100E0800031D0E2F0030F9000030F8000030F70005
:100E18000030F600F51F282F0030A0000030A10098
:100E28000030A2008030A3007208A0027308A13B22
:100E38007408A23B7508A33B2308F5002208F400B8
:100E48002108F3002008F200F91F422F0030A0000B
:100E58000030A1000030A2008030A3007608A00274
:100E68007708A13B7808A23B7908A33B2308F9003F
:100E78002208F8002108F7002008F6008030F5065F
:100E88008030F90679087502031D08007808740295
:100E9800031D080077087302031D08007608720214
:100EA80008001330F2008130F3008E31C2268731FA
:100EB80073084101A1007208A0001630F2008130C9
:100EC800F3008E31C226873173084101A3007208EE
:100ED800A2001830F2008130F3008E31C22687312B
:100EE80073084101A5007208A4001930F20081308E
:100EF800F3008E31C226873173084101A7007208BA
:100F0800A6001A30F2008130F3008E31C2268731F4
:100F180073084101A9007208A8001B30F200813053
:100F2800F3008E31C226873173084101AB00720885
:100F3800AA001C30F2008130F3008E31C2268731BE
:100F480073084101AD007208AC001D30F200813019
:100F5800F3008E31C22673084101AF007208AE005B
:100F6800080040019A1FCF2FD12F40016E08F500CD
:100F78006D08F4006C08F3006B08F2003F30F900CC
:100F88000030F8000030F7000030F6008631D9262E
:100F98008731031CF62F013008000230DA000030D8
:100FA800DB0084313B24873140015D08EE005C089A
:100FB800ED005B08EC005A08EB003F30F500993073
:100FC800F4009930F3009A30F2006E08F9006D08C9
:100FD800F8006C08F7006B08F6008631D9268731CF
:100FE8000318B92F0130F2000030F3008F312D279C
:100FF800003008000034003400343F349A34993407
:1010080099343F340A34D73483343F34F63428349F
:041018005C343F34D1
:101D7000E634003400340034640080010131890B02
:101D8000BD2E003450011E1773089B0072089A0084
:101D90001E141E18C92E1D08F3001C08F2000800AE
:101DA000400114141A100B30F3002630F2005E309C
:101DB000890BD82EF20BD82EF30BD82E400114101D
:101DC0000B30F3002630F2005E30890BE52EF20B6B
:101DD000E52EF30BE52E4001141408007A08031DCC
:101DE000FD2E40011A190D18FD2E0230F200720866
:101DF000FA000430F2007208FB0002307A06031D7C
:101E0000080004307B06031D080040011A1D08006D
:101E10000D1C0800FA01FB0108004001A400A0010C
:101E2000A1017208F400F5017408A2007508A3006E
:101E3000241C1E2F2208A0072308A13D0130A23533
:101E4000A30D890B1F2F0310A40C2408031D182FAA
:101E50002108F3002008F200080040011414293082
:101E6000F5009630F4007F30890B342FF40B342FBB
:101E7000F50B342F000040011A14F601F701770822
:101E8000803AF4007308803A7402031D492F7208E7
:101E9000760203180800400114100D30F5002D30B3
:101EA000F400D830890B522FF40B522FF50B522F20
:101EB000400114140D30F5002D30F400D830890B9A
:101EC0005F2FF40B5F2FF50B5F2F0130F60700300B
:101ED000F73D3F2F02307A06031D0800972F1A1096
:101EE000141008000230F2000030F3008F312D276B
:101EF0008F318531182508000330F2000030F300DF
:101F00008F312D278F318531182508000430F200DC
:101F10000030F3008F312D278F318E31EE260800EF
:101F20000530F2000030F3008F312D2708007B08C8
:101F30004001EC00ED016D08003A0319A02F902F2D
:101F40006C08013A03196F2F033A0319722F013AF3
:101F500003197C2F073A0319862F902F080086312A
:101F600058268F314101C201C301ED2F8731B527BA
:101F70008F31003A0319BF2F8E31D0268F314001A7
:101F80001A1D9A1341014308803AC0008030400274
:101F9000031DCC2F05304202031CD52F8531182597
:101FA0008F314101C201C301DA2F01304101C20763
:101FB0000030C33D8E31EE268F31ED2F03307B068E
:101FC0000319E62F02307B06031DEA2F40011A1188
:101FD0009A129A178F316A278F317A084101C0000F
:101FE000C1014108003A0319F62FED2F4008003ACD
:101FF0000319B62F023A0319DE2FED2F8031762810
:020000040001F9
:0A000E009C1F3F2F9F3FFF1FFF3F85
:00000001FF
