:020000040000FA
:0400000080317328B0
:1000060008007E1480314E01161E49287E01BF1F4E
:100016004928BF137B08031D49280730F100173014
:10002600F0006A30890B1528F00B1528F10B1528FE
:10003600003240018C1B382803101A1D0314031CC0
:10004600272840011A15292840011A1103109A1E63
:100056000314031C312840019A16332840019A12D2
:100066001A1D37289A1738289A13FD304B019D0020
:100076009C014E018C1200304101BB000030BA00D9
:100086000030B9000030B8004E0196164E01961A9F
:100096008C1E6E288C127B08031D6E2841013B08BE
:1000A600031D68283A08031D68283908031D6828B7
:1000B6009A303802031868280130B8070030B93D75
:1000C6000030BA3D0030BB3D6E284E01961240010D
:1000D6001A119A129A134E0117180D087E1009006C
:1000E600803175284001EE01A03084000030850083
:1000F6001C308731F6277E10400187317B2F400167
:1001060043088039C8004808CD004335C800480870
:10011600D300C21B5314530803199E28530A031D08
:100126009C280030C3000030C2000030C1000030FF
:10013600C000C217A6280030C3000030C20000303D
:10014600C1000030C00047088039C8004808CD0605
:100156004735C8004808D200C61B52145208031976
:10016600C128520A031DBF280030C7000030C60050
:100176000030C5000030C400C617C9280030C700CB
:100186000030C6000030C5000030C4005208031D10
:100196005308031DD7280030C3000030C2000030CA
:1001A600C1000030C00008004008C8004808F2003E
:1001B60046088731C927803173084001D900720883
:1001C600D8005808C800C901CA01CB014B08D100A4
:1001D6004A08D0004908CF004808CE005908C80090
:1001E600C901CA01CB014B08D7004A08D600490805
:1001F600D5004808D4004108C8004808F200450860
:100206008731C927803173084001D9007208D800A8
:100216005808C800C901CA01CB014808CE074908D9
:10022600CF3D4A08D03D4B08D13D5908C800C90109
:10023600CA01CB014808D4074908D53D4A08D63D2E
:100246004B08D73D4208C8004808F20044088731E9
:10025600C927803173084001D9007208D8005808B0
:10026600C800C901CA01CB014808CE074908CF3DDD
:100276004A08D03D4B08D13D5908C800C901CA01FA
:10028600CB014808D4074908D53D4A08D63D4B0856
:10029600D73D0830CE35CF0DD00DD10D890B4D2968
:1002A6004108C8004808F20044088731C927803150
:1002B60073084001D9007208D8005808CE075908BB
:1002C600CF3D0030D03DD13D4008C8004808F2007F
:1002D60045088731C927803173084001D900720863
:1002E600D8005808CE075908CF3D0030D03DD13D43
:1002F6000830CE35CF0DD00DD10D890B7C294008A5
:10030600C8004808F20044088731C92780317308BD
:100316004001D9007208D8005808CE075908CF3DC9
:100326000030D03DD13D4108C8004808F2004608DB
:100336008731C927803173084001D9007208D80077
:100346005808D4075908D53D0030D63DD73D420858
:10035600C8004808F20045088731C927803173086C
:100366004001D9007208D8005808D4075908D53D6D
:100376000030D63DD73D4208C8004808F20046087E
:100386008731C927803173084001D9007208D80027
:100396005808C8005908C900CA01CB010830C83539
:1003A600C90DCA0DCB0D890BD2294808D4074908B7
:1003B600D53D4A08D63D4B08D73D4E08C8004F08E4
:1003C600C9005008CA005108CB001830CB36CA0CF9
:1003D600C90CC80C890BE9294808D4074908D53D3A
:1003E6004A08D63D4B08D73D0830CE35CF0DD00D47
:1003F600D10D890BF82953085207C800C901C90D48
:100406004808823ED800FF30493DD900D61B202A35
:100416000130D435D50DD60DD70D890B0C2AD11B3D
:1004260054140130CE35CF0DD00DD10D890B152AC0
:10043600FF30D807FF30D93D092AD201D11F392A0A
:10044600FF304E05C800FF304F05C900FF3050058C
:10045600CA007F305105CB004B084A0449044804C2
:1004660003195418372A392AD201D20A5208031915
:10047600622A0130D4070030D53D0030D63D003029
:10048600D73D571C622A5408C8005508C9005608AB
:10049600CA005708CB000130CC00CB37CA0CC90CB8
:1004A600C80CCC0B502A4B08D7004A08D60049087E
:1004B600D5004808D4000130D8070030D93D590886
:1004C600803AC80080304802031D6B2AFF3058026C
:1004D600031C772A7F304001D7008030D6000030D9
:1004E600D5000030D400A12A40015908803AC8003E
:1004F60080304802031D812A0130580203188E2AD3
:1005060000304001D7000030D6000030D500003062
:10051600D400CD01A12A40015808C8004808D300DC
:10052600FF30D405FF30D5057F30D6050030D7051E
:100536005318D6175336C8004808D7004D08C800C8
:100546004808D7045708C3005608C2005508C1001A
:100556005408C000080040012D088039AE002E085E
:10056600B7002D35AE002E08BE00AC1B3E143E086B
:100576000319CB2A3E0A031DC82A0030AD000030FD
:10058600AC000030AB000030AA00AC17AD01D32A96
:100596000030AD000030AC000030AB000030AA00E7
:1005A60029088039AE002E08B7062935AE002E0878
:1005B600BF00A81B3F143F080319EF2A3F0A031D7B
:1005C600EC2A0030A9000030A8000030A700003057
:1005D600A600A817A901F72A0030A9000030A80034
:1005E6000030A7000030A6002908280427042604A6
:1005F600031D162B0030AD000030AC000030AB0000
:100606000030AA008030AC047F30AD043708AE005D
:100616002E08AD042D08A9002C08A8002B08A70059
:100626002A08A60008003E08031D222B0030A90058
:100636000030A8000030A7000030A60008003E08E1
:10064600AE00AF012F08B1003F082E02B000031C18
:10065600B10330087F3EB8000030313DB9002D08A7
:10066600B6002C08B5002B08B4002A08B3000030E9
:10067600AD000030AC000030AB000030AA00003006
:10068600BD000030BC000030BB000030BA00BF0126
:100696001A303F020318872B3F080319692B0130D4
:1006A600B335B40DB50DB60D890B532B0130AA35F4
:1006B600AB0DAC0DAD0D890B5A2BBD1B2A140130A9
:1006C600BA35BB0DBC0DBD0D890B632B290836024F
:1006D600031D772B28083502031D772B27083402C4
:1006E600031D772B26083302031C822B3D17260891
:1006F600B3022708B43B2808B53B2908B63B0130AE
:10070600AE002E08BF074B2B3608350434043304DD
:10071600031D3A14AC1BA42B0130AA35AB0DAC0D4E
:10072600AD0D890B902BBD1B2A140130BA35BB0DBC
:10073600BC0DBD0D890B992BFF30B807FF30B93DB5
:100746008D2BBF01BD1FBD2BFF303A05AE00FF301C
:100756003B05AF00FF303C05B0007F303D05B100E2
:10076600310830042F042E0403192A18BB2BBD2B85
:10077600BF01BF0A3F080319E62B0130AA07003064
:10078600AB3D0030AC3D0030AD3D2D1CE62B2A08BC
:10079600AE002B08AF002C08B0002D08B1000130C8
:1007A600B200B137B00CAF0CAE0CB20BD42B310883
:1007B600AD003008AC002F08AB002E08AA000130AF
:1007C600B8070030B93D3908803AAE0080302E02B5
:1007D600031DEF2BFF303802031CFE2BFF304001B8
:1007E600B8000030B9000030AD000030AC00003079
:1007F600AB000030AA0040013908803AAE008030D4
:100806002E02031D082C013038020318162C400155
:10081600B801B9010030AD000030AC000030AB00CB
:100826000030AA00B70140013808AE002E08BE000D
:100836003E1C1F2CAC17232C7F30AE002E08AC05B7
:100846003E36AE002E08AD00092B00304001EA000E
:100856000030E9000030E8000030E70041011D14D7
:10086600FC309D04A0300032890B362C41019D14CA
:1008760041019D1C432C1530890B3F2C00003B2C5D
:100886002808F2002908F300F401F501003085314B
:10089600B125843175084001C3007408C20073088D
:1008A600C1007208C00041011B08F2001C08F300D9
:1008B600F401F50100308531B12584317508400118
:1008C600A9007408A8007308A7007208A60044309F
:1008D600AD008030AC000030AB000030AA008231A1
:1008E600AE22843140012908C7002808C60027081F
:1008F600C5002608C40080318220843140014308A7
:10090600E6004208E5004108E4004008E3005A0812
:10091600DE00DE0DDE0D41011D0840015E060339D5
:100926005E0641019D00A0300032890B972C4101E3
:100936009D1441019D1CA42C1530890BA02C000090
:100946009C2C40016608C3006508C2006408C1000B
:100956006308C0004430A9007F30A800C030A7005B
:100966000030A60041011B08F2001C08F300F40148
:10097600F50100308531B125843175084001AD009F
:100986007408AC007308AB007208AA008231AE226C
:10099600843140012908C7002808C6002708C50079
:1009A6002608C40080318220843140014308E200D9
:1009B6004208E1004108E0004008DF003A30C30089
:1009C6008330C2001230C1006F30C0006208C70019
:1009D6006108C6006008C5005F08C4008031822037
:1009E60040014308EA004208E9004108E8004008DF
:1009F600E7006A08DD006908DC006808DB006708B4
:100A0600DA00080000304001DA00DB0084312824D7
:100A1600853140015D084101B70040015C08410194
:100A2600B60040015B084101B50040015A0841018A
:100A3600B40001304001DA000030DB0084312824A4
:100A4600853140015D084101B30040015C08410168
:100A5600B20040015B084101B10040015A08410162
:100A6600B0007B08031D752D3708F5003608F40025
:100A76003508F3003408F2003F30F9005C30F80026
:100A86002830F700F630F600863147268531031800
:100A9600552D02304001EB006B08FB000330EB00E4
:100AA6006B08EE0041013308F5003208F400310806
:100AB600F3003008F2003F30F9005C30F8002830CF
:100AC600F700F630F6008631472685310318080010
:100AD60002304001EB006B08FB000230EB006B08B4
:100AE600EE00080002307B06031D08003F30F500CB
:100AF6008330F400D730F3000A30F2003708F900EB
:100B06003608F8003508F7003408F600863147261F
:100B160085310318932D033040016E060319AE2D5F
:100B26003F30F5008330F400D730F3000A30F2008E
:100B360041013308F9003208F8003108F70030089F
:100B4600F600863147268531031808000230400139
:100B56006E06031D0800FB01EE0108004001A0001F
:100B66002008031DF51FC72D7209A2007309A300F3
:100B76007409A4007509A500A20A0319A30A03199A
:100B8600A40A0319A50ACF2D7508A5007408A400A8
:100B96007308A3007208A200750874047304720433
:100BA600031DDE2D0030F5000030F4000030F300A8
:100BB6000030F20008009630F6007608A100FE30FC
:100BC60025050319052E0130F6007608A107013028
:100BD600A536A40CA30CA20C890BEB2DE22D01303B
:100BE600F6007608A1070130A2070030A33D0030C9
:100BF600A43D0030A53D0130A536A40CA30CA20CE3
:100C0600890BFF2DFF3025050319172EF22D023013
:100C16002102031C192E0130A1020130A235A30DB9
:100C2600A40DA50D890B112EA41F0A2E2118232E03
:100C3600FF30A205FF30A3057F30A405FF30A505D0
:100C46000310A10C2108F600F701F801F90118308C
:100C5600F635F70DF80DF90D890B2B2E7608A20443
:100C66007708A3047808A4047908A5042008031DBE
:100C7600F51F3E2EA5172508F5002408F4002308C5
:100C8600F3002208F2000800003072054001A000BF
:100C960000307305A10080307405A2007F30750511
:100CA600A3002308220421042004031D622E003021
:100CB600F5000030F4000030F3000030F2000030A0
:100CC6007605A00000307705A10080307805A200E7
:100CD6007F307905A3002308220421042004031D84
:100CE6007C2E0030F9000030F8000030F7000030AC
:100CF600F600F51F962E0030A0000030A10000304F
:100D0600A2008030A3007208A0027308A13B7408F9
:100D1600A23B7508A33B2308F5002208F40021082E
:100D2600F3002008F200F91FB02E0030A0000030BA
:100D3600A1000030A2008030A3007608A002770848
:100D4600A13B7808A23B7908A33B2308F9002208B7
:100D5600F8002108F7002008F6008030F5068030FC
:100D6600F90679087502031D080078087402031D48
:100D7600080077087302031D08007608720208004F
:100D86001330F2008130F3008731E827863173088B
:100D96004101A1007208A0001630F2008130F30074
:100DA6008731E827863173084101A3007208A20043
:100DB6001830F2008130F3008731E8278631730856
:100DC6004101A5007208A4001930F2008130F30039
:100DD6008731E827863173084101A7007208A6000B
:100DE6001A30F2008130F3008731E8278631730824
:100DF6004101A9007208A8001B30F2008130F300FF
:100E06008731E827863173084101AB007208AA00D2
:100E16001C30F2008130F3008731E82786317308F1
:100E26004101AD007208AC001D30F2008130F300C4
:100E36008731E82773084101AF007208AE00080049
:100E4600FB01FB0A8B170B17400112147E013814A5
:100E5600400192147E01B814400112157E01381526
:100E6600400113147E014310400192177E01B8130E
:100E76004E1040011A1014141A117E014E11400131
:100E860014119A127E01CE12400194129A137E0119
:100E9600CE13400194134E0116167E01BE17033081
:100EA60052018C040C308C048C170C1F582F4101F6
:100EB6001E088F3910389E00FC309E05FC309D04BC
:100EC6009E171D104E010D1017104B019E174E0157
:100ED60096124B011E121F161F081F39A0389F00BD
:100EE6001F08F03908389F008631C326FB01080029
:100EF6008731232787314101C201C301B62F8F31C4
:100F06004127873140011A1D9A1341014308803A4F
:100F1600C00080304002031D922F05304202031CA0
:100F26009B2F8531052587314101C201C301A02FC1
:100F360001304101C2070030C33D8F315F27873141
:100F4600803103208731B62F033040016E06031926
:100F5600B02F02306E06031DB32F1A119A129A177C
:100F66008F31BB2787317B084101C000C101410891
:100F7600003A0319BF2FB62F4008003A0319822FF3
:100F8600023A0319A72FB62F80317328FA00F6010B
:100F9600F7017208F400F5017408F8007508F90005
:100FA6007A1CD92F7808F6077908F73D0130F8350D
:100FB600F90D890BDA2F0310FA0C7A08031DD32FCB
:100FC6007708F3007608F200080050011E17730830
:100FD6009B0072089A001E141E18EF2F1D08F300BE
:100FE6001C08F2000800640080010131890BF72F0C
:100FF60000340034003400343F349A349934993440
:101006003F340A34D73483343F34F63428345C34DE
:021016003F3465
:101E8200400114141A100B30F3002630F2005E30B9
:101E9200890B492FF20B492FF30B492F40011410E4
:101EA2000B30F3002630F2005E30890B562FF20B16
:101EB200562FF30B562F4001141408007B08031D04
:101EC2006E2F40011A190D186E2F0230F20072089F
:101ED200FB000430F2007208EE0002307B06031DA4
:101EE2000800043040016E06031D08001A1D080098
:101EF2000D1C0800FB01EE010800400114142930FA
:101F0200F5009630F4007F30890B852FF40B852F76
:101F1200F50B852F000040011A14F601F70177082E
:101F2200803AF4007308803A7402031D9A2F7208F3
:101F3200760203180800400114100D30F5002D3010
:101F4200F400D830890BA32FF40BA32FF50BA32F8A
:101F5200400114140D30F5002D30F400D830890BF7
:101F6200B02FF40BB02FF50BB02F0130F607003075
:101F7200F73D902F02307B06031D0800E82F1A1050
:101F8200141008000230F2000030F3008F317E2777
:101F92008F318531052508000330F2000030F3004F
:101FA2008F317E278F318531052508000430F200FC
:101FB2000030F3008F317E278F318F315F27080089
:101FC2000530F2000030F3008F317E270800400117
:101FD2006E08EC00ED016D08003A0319F12FE12FB4
:101FE2006C08013A0319C02F033A0319C32F013AAF
:0E1FF2000319CD2F073A0319D72FE12F08004E
:020000040001F9
:0A000E009C1F3F2F9F3FFF1FFF3F85
:00000001FF
